{
  "contractName": "Auction",
  "abi": [
    {
      "inputs": [],
      "payable": false,
      "stateMutability": "nonpayable",
      "type": "constructor"
    },
    {
      "constant": true,
      "inputs": [],
      "name": "admin",
      "outputs": [
        {
          "internalType": "address",
          "name": "",
          "type": "address"
        }
      ],
      "payable": false,
      "stateMutability": "view",
      "type": "function"
    },
    {
      "constant": true,
      "inputs": [
        {
          "internalType": "address",
          "name": "",
          "type": "address"
        }
      ],
      "name": "bidderDetails",
      "outputs": [
        {
          "internalType": "address",
          "name": "bidderAddress",
          "type": "address"
        },
        {
          "internalType": "string",
          "name": "companyName",
          "type": "string"
        },
        {
          "internalType": "string",
          "name": "taxNumber",
          "type": "string"
        },
        {
          "internalType": "string",
          "name": "companyAddress",
          "type": "string"
        },
        {
          "internalType": "string",
          "name": "name",
          "type": "string"
        },
        {
          "internalType": "string",
          "name": "phone",
          "type": "string"
        },
        {
          "internalType": "bool",
          "name": "isVerified",
          "type": "bool"
        },
        {
          "internalType": "bool",
          "name": "hasBided",
          "type": "bool"
        },
        {
          "internalType": "bool",
          "name": "isRegistered",
          "type": "bool"
        }
      ],
      "payable": false,
      "stateMutability": "view",
      "type": "function"
    },
    {
      "constant": true,
      "inputs": [
        {
          "internalType": "uint256",
          "name": "",
          "type": "uint256"
        }
      ],
      "name": "bidders",
      "outputs": [
        {
          "internalType": "address",
          "name": "",
          "type": "address"
        }
      ],
      "payable": false,
      "stateMutability": "view",
      "type": "function"
    },
    {
      "constant": true,
      "inputs": [
        {
          "internalType": "address",
          "name": "",
          "type": "address"
        }
      ],
      "name": "biddingDetails",
      "outputs": [
        {
          "internalType": "address",
          "name": "bidAddress",
          "type": "address"
        },
        {
          "internalType": "string",
          "name": "bidDetail",
          "type": "string"
        },
        {
          "internalType": "string",
          "name": "bidPrice",
          "type": "string"
        },
        {
          "internalType": "bool",
          "name": "hasBided",
          "type": "bool"
        },
        {
          "internalType": "bool",
          "name": "isBided",
          "type": "bool"
        }
      ],
      "payable": false,
      "stateMutability": "view",
      "type": "function"
    },
    {
      "constant": true,
      "inputs": [
        {
          "internalType": "uint256",
          "name": "",
          "type": "uint256"
        }
      ],
      "name": "biddings",
      "outputs": [
        {
          "internalType": "address",
          "name": "",
          "type": "address"
        }
      ],
      "payable": false,
      "stateMutability": "view",
      "type": "function"
    },
    {
      "constant": true,
      "inputs": [],
      "name": "getAdmin",
      "outputs": [
        {
          "internalType": "address",
          "name": "",
          "type": "address"
        }
      ],
      "payable": false,
      "stateMutability": "view",
      "type": "function"
    },
    {
      "constant": false,
      "inputs": [
        {
          "internalType": "string",
          "name": "_adminName",
          "type": "string"
        },
        {
          "internalType": "string",
          "name": "_adminEmail",
          "type": "string"
        },
        {
          "internalType": "string",
          "name": "_adminTitle",
          "type": "string"
        },
        {
          "internalType": "string",
          "name": "_auctionTitle",
          "type": "string"
        },
        {
          "internalType": "string",
          "name": "_organizationTitle",
          "type": "string"
        },
        {
          "internalType": "string",
          "name": "_auctionDetail",
          "type": "string"
        },
        {
          "internalType": "string",
          "name": "_middlePrice",
          "type": "string"
        }
      ],
      "name": "setAuctionDetails",
      "outputs": [],
      "payable": false,
      "stateMutability": "nonpayable",
      "type": "function"
    },
    {
      "constant": true,
      "inputs": [],
      "name": "getAuctionDetails",
      "outputs": [
        {
          "internalType": "string",
          "name": "adminName",
          "type": "string"
        },
        {
          "internalType": "string",
          "name": "adminEmail",
          "type": "string"
        },
        {
          "internalType": "string",
          "name": "adminTitle",
          "type": "string"
        },
        {
          "internalType": "string",
          "name": "auctionTitle",
          "type": "string"
        },
        {
          "internalType": "string",
          "name": "organizationTitle",
          "type": "string"
        },
        {
          "internalType": "string",
          "name": "auctionDetail",
          "type": "string"
        },
        {
          "internalType": "string",
          "name": "middlePrice",
          "type": "string"
        }
      ],
      "payable": false,
      "stateMutability": "view",
      "type": "function"
    },
    {
      "constant": true,
      "inputs": [],
      "name": "getTotalBidder",
      "outputs": [
        {
          "internalType": "uint256",
          "name": "",
          "type": "uint256"
        }
      ],
      "payable": false,
      "stateMutability": "view",
      "type": "function"
    },
    {
      "constant": false,
      "inputs": [
        {
          "internalType": "bool",
          "name": "_verifedStatus",
          "type": "bool"
        },
        {
          "internalType": "address",
          "name": "bidderAddress",
          "type": "address"
        }
      ],
      "name": "verifyBidder",
      "outputs": [],
      "payable": false,
      "stateMutability": "nonpayable",
      "type": "function"
    },
    {
      "constant": false,
      "inputs": [
        {
          "internalType": "string",
          "name": "_companyName",
          "type": "string"
        },
        {
          "internalType": "string",
          "name": "_taxNumber",
          "type": "string"
        },
        {
          "internalType": "string",
          "name": "_companyAddress",
          "type": "string"
        },
        {
          "internalType": "string",
          "name": "_name",
          "type": "string"
        },
        {
          "internalType": "string",
          "name": "_phone",
          "type": "string"
        }
      ],
      "name": "registerAsBidder",
      "outputs": [],
      "payable": false,
      "stateMutability": "nonpayable",
      "type": "function"
    },
    {
      "constant": false,
      "inputs": [],
      "name": "endAuction",
      "outputs": [],
      "payable": false,
      "stateMutability": "nonpayable",
      "type": "function"
    },
    {
      "constant": true,
      "inputs": [],
      "name": "getStart",
      "outputs": [
        {
          "internalType": "bool",
          "name": "",
          "type": "bool"
        }
      ],
      "payable": false,
      "stateMutability": "view",
      "type": "function"
    },
    {
      "constant": true,
      "inputs": [],
      "name": "getEnd",
      "outputs": [
        {
          "internalType": "bool",
          "name": "",
          "type": "bool"
        }
      ],
      "payable": false,
      "stateMutability": "view",
      "type": "function"
    },
    {
      "constant": true,
      "inputs": [],
      "name": "getTotalBidding",
      "outputs": [
        {
          "internalType": "uint256",
          "name": "",
          "type": "uint256"
        }
      ],
      "payable": false,
      "stateMutability": "view",
      "type": "function"
    },
    {
      "constant": false,
      "inputs": [
        {
          "internalType": "string",
          "name": "_bidDetail",
          "type": "string"
        },
        {
          "internalType": "string",
          "name": "_bidPrice",
          "type": "string"
        }
      ],
      "name": "fillBidding",
      "outputs": [],
      "payable": false,
      "stateMutability": "nonpayable",
      "type": "function"
    },
    {
      "constant": false,
      "inputs": [
        {
          "internalType": "bool",
          "name": "_bidedStatus",
          "type": "bool"
        },
        {
          "internalType": "address",
          "name": "bidAddress",
          "type": "address"
        }
      ],
      "name": "verifyBidding",
      "outputs": [],
      "payable": false,
      "stateMutability": "nonpayable",
      "type": "function"
    }
  ],
  "bytecode": "0x608060405234801561001057600080fd5b50336000806101000a81548173ffffffffffffffffffffffffffffffffffffffff021916908373ffffffffffffffffffffffffffffffffffffffff1602179055506000600181905550600060028190555060006003819055506000600460006101000a81548160ff0219169083151502179055506000600460016101000a81548160ff0219169083151502179055506127aa806100ae6000396000f3fe608060405234801561001057600080fd5b506004361061010b5760003560e01c80639266ca61116100a2578063c5292c6711610071578063c5292c6714611262578063cff29dfd14611284578063d64d7963146112f2578063f851a44014611342578063fe67a54b1461138c5761010b565b80639266ca61146111965780639f05a36d14611204578063a007883c14611226578063a3d59077146112445761010b565b806367e739a0116100de57806367e739a014610c735780636e9960c314610cc357806373b53d8814610d0d5780638ec07bfe146110245761010b565b8063390127dd146101105780633a6dcea2146103d15780633bd6ab2c146106dc57806352a7f5ff1461082e575b600080fd5b6101526004803603602081101561012657600080fd5b81019080803573ffffffffffffffffffffffffffffffffffffffff169060200190929190505050611396565b604051808a73ffffffffffffffffffffffffffffffffffffffff1673ffffffffffffffffffffffffffffffffffffffff168152602001806020018060200180602001806020018060200189151515158152602001881515151581526020018715151515815260200186810386528e818151815260200191508051906020019080838360005b838110156101f25780820151818401526020810190506101d7565b50505050905090810190601f16801561021f5780820380516001836020036101000a031916815260200191505b5086810385528d818151815260200191508051906020019080838360005b8381101561025857808201518184015260208101905061023d565b50505050905090810190601f1680156102855780820380516001836020036101000a031916815260200191505b5086810384528c818151815260200191508051906020019080838360005b838110156102be5780820151818401526020810190506102a3565b50505050905090810190601f1680156102eb5780820380516001836020036101000a031916815260200191505b5086810383528b818151815260200191508051906020019080838360005b83811015610324578082015181840152602081019050610309565b50505050905090810190601f1680156103515780820380516001836020036101000a031916815260200191505b5086810382528a818151815260200191508051906020019080838360005b8381101561038a57808201518184015260208101905061036f565b50505050905090810190601f1680156103b75780820380516001836020036101000a031916815260200191505b509e50505050505050505050505050505060405180910390f35b6103d9611723565b604051808060200180602001806020018060200180602001806020018060200188810388528f818151815260200191508051906020019080838360005b83811015610431578082015181840152602081019050610416565b50505050905090810190601f16801561045e5780820380516001836020036101000a031916815260200191505b5088810387528e818151815260200191508051906020019080838360005b8381101561049757808201518184015260208101905061047c565b50505050905090810190601f1680156104c45780820380516001836020036101000a031916815260200191505b5088810386528d818151815260200191508051906020019080838360005b838110156104fd5780820151818401526020810190506104e2565b50505050905090810190601f16801561052a5780820380516001836020036101000a031916815260200191505b5088810385528c818151815260200191508051906020019080838360005b83811015610563578082015181840152602081019050610548565b50505050905090810190601f1680156105905780820380516001836020036101000a031916815260200191505b5088810384528b818151815260200191508051906020019080838360005b838110156105c95780820151818401526020810190506105ae565b50505050905090810190601f1680156105f65780820380516001836020036101000a031916815260200191505b5088810383528a818151815260200191508051906020019080838360005b8381101561062f578082015181840152602081019050610614565b50505050905090810190601f16801561065c5780820380516001836020036101000a031916815260200191505b50888103825289818151815260200191508051906020019080838360005b8381101561069557808201518184015260208101905061067a565b50505050905090810190601f1680156106c25780820380516001836020036101000a031916815260200191505b509e50505050505050505050505050505060405180910390f35b61082c600480360360408110156106f257600080fd5b810190808035906020019064010000000081111561070f57600080fd5b82018360208201111561072157600080fd5b8035906020019184600183028401116401000000008311171561074357600080fd5b91908080601f016020809104026020016040519081016040528093929190818152602001838380828437600081840152601f19601f820116905080830192505050505050509192919290803590602001906401000000008111156107a657600080fd5b8201836020820111156107b857600080fd5b803590602001918460018302840111640100000000831117156107da57600080fd5b91908080601f016020809104026020016040519081016040528093929190818152602001838380828437600081840152601f19601f820116905080830192505050505050509192919290505050611bab565b005b610c71600480360360e081101561084457600080fd5b810190808035906020019064010000000081111561086157600080fd5b82018360208201111561087357600080fd5b8035906020019184600183028401116401000000008311171561089557600080fd5b91908080601f016020809104026020016040519081016040528093929190818152602001838380828437600081840152601f19601f820116905080830192505050505050509192919290803590602001906401000000008111156108f857600080fd5b82018360208201111561090a57600080fd5b8035906020019184600183028401116401000000008311171561092c57600080fd5b91908080601f016020809104026020016040519081016040528093929190818152602001838380828437600081840152601f19601f8201169050808301925050505050505091929192908035906020019064010000000081111561098f57600080fd5b8201836020820111156109a157600080fd5b803590602001918460018302840111640100000000831117156109c357600080fd5b91908080601f016020809104026020016040519081016040528093929190818152602001838380828437600081840152601f19601f82011690508083019250505050505050919291929080359060200190640100000000811115610a2657600080fd5b820183602082011115610a3857600080fd5b80359060200191846001830284011164010000000083111715610a5a57600080fd5b91908080601f016020809104026020016040519081016040528093929190818152602001838380828437600081840152601f19601f82011690508083019250505050505050919291929080359060200190640100000000811115610abd57600080fd5b820183602082011115610acf57600080fd5b80359060200191846001830284011164010000000083111715610af157600080fd5b91908080601f016020809104026020016040519081016040528093929190818152602001838380828437600081840152601f19601f82011690508083019250505050505050919291929080359060200190640100000000811115610b5457600080fd5b820183602082011115610b6657600080fd5b80359060200191846001830284011164010000000083111715610b8857600080fd5b91908080601f016020809104026020016040519081016040528093929190818152602001838380828437600081840152601f19601f82011690508083019250505050505050919291929080359060200190640100000000811115610beb57600080fd5b820183602082011115610bfd57600080fd5b80359060200191846001830284011164010000000083111715610c1f57600080fd5b91908080601f016020809104026020016040519081016040528093929190818152602001838380828437600081840152601f19601f820116905080830192505050505050509192919290505050611d78565b005b610cc160048036036040811015610c8957600080fd5b81019080803515159060200190929190803573ffffffffffffffffffffffffffffffffffffffff169060200190929190505050611f13565b005b610ccb611fca565b604051808273ffffffffffffffffffffffffffffffffffffffff1673ffffffffffffffffffffffffffffffffffffffff16815260200191505060405180910390f35b611022600480360360a0811015610d2357600080fd5b8101908080359060200190640100000000811115610d4057600080fd5b820183602082011115610d5257600080fd5b80359060200191846001830284011164010000000083111715610d7457600080fd5b91908080601f016020809104026020016040519081016040528093929190818152602001838380828437600081840152601f19601f82011690508083019250505050505050919291929080359060200190640100000000811115610dd757600080fd5b820183602082011115610de957600080fd5b80359060200191846001830284011164010000000083111715610e0b57600080fd5b91908080601f016020809104026020016040519081016040528093929190818152602001838380828437600081840152601f19601f82011690508083019250505050505050919291929080359060200190640100000000811115610e6e57600080fd5b820183602082011115610e8057600080fd5b80359060200191846001830284011164010000000083111715610ea257600080fd5b91908080601f016020809104026020016040519081016040528093929190818152602001838380828437600081840152601f19601f82011690508083019250505050505050919291929080359060200190640100000000811115610f0557600080fd5b820183602082011115610f1757600080fd5b80359060200191846001830284011164010000000083111715610f3957600080fd5b91908080601f016020809104026020016040519081016040528093929190818152602001838380828437600081840152601f19601f82011690508083019250505050505050919291929080359060200190640100000000811115610f9c57600080fd5b820183602082011115610fae57600080fd5b80359060200191846001830284011164010000000083111715610fd057600080fd5b91908080601f016020809104026020016040519081016040528093929190818152602001838380828437600081840152601f19601f820116905080830192505050505050509192919290505050611ff3565b005b6110666004803603602081101561103a57600080fd5b81019080803573ffffffffffffffffffffffffffffffffffffffff169060200190929190505050612257565b604051808673ffffffffffffffffffffffffffffffffffffffff1673ffffffffffffffffffffffffffffffffffffffff16815260200180602001806020018515151515815260200184151515158152602001838103835287818151815260200191508051906020019080838360005b838110156110f05780820151818401526020810190506110d5565b50505050905090810190601f16801561111d5780820380516001836020036101000a031916815260200191505b50838103825286818151815260200191508051906020019080838360005b8381101561115657808201518184015260208101905061113b565b50505050905090810190601f1680156111835780820380516001836020036101000a031916815260200191505b5097505050505050505060405180910390f35b6111c2600480360360208110156111ac57600080fd5b81019080803590602001909291905050506123f7565b604051808273ffffffffffffffffffffffffffffffffffffffff1673ffffffffffffffffffffffffffffffffffffffff16815260200191505060405180910390f35b61120c612433565b604051808215151515815260200191505060405180910390f35b61122e61244a565b6040518082815260200191505060405180910390f35b61124c612454565b6040518082815260200191505060405180910390f35b61126a61245e565b604051808215151515815260200191505060405180910390f35b6112b06004803603602081101561129a57600080fd5b8101908080359060200190929190505050612475565b604051808273ffffffffffffffffffffffffffffffffffffffff1673ffffffffffffffffffffffffffffffffffffffff16815260200191505060405180910390f35b6113406004803603604081101561130857600080fd5b81019080803515159060200190929190803573ffffffffffffffffffffffffffffffffffffffff1690602001909291905050506124b1565b005b61134a612569565b604051808273ffffffffffffffffffffffffffffffffffffffff1673ffffffffffffffffffffffffffffffffffffffff16815260200191505060405180910390f35b61139461258e565b005b600d6020528060005260406000206000915090508060000160009054906101000a900473ffffffffffffffffffffffffffffffffffffffff1690806001018054600181600116156101000203166002900480601f0160208091040260200160405190810160405280929190818152602001828054600181600116156101000203166002900480156114685780601f1061143d57610100808354040283529160200191611468565b820191906000526020600020905b81548152906001019060200180831161144b57829003601f168201915b505050505090806002018054600181600116156101000203166002900480601f0160208091040260200160405190810160405280929190818152602001828054600181600116156101000203166002900480156115065780601f106114db57610100808354040283529160200191611506565b820191906000526020600020905b8154815290600101906020018083116114e957829003601f168201915b505050505090806003018054600181600116156101000203166002900480601f0160208091040260200160405190810160405280929190818152602001828054600181600116156101000203166002900480156115a45780601f10611579576101008083540402835291602001916115a4565b820191906000526020600020905b81548152906001019060200180831161158757829003601f168201915b505050505090806004018054600181600116156101000203166002900480601f0160208091040260200160405190810160405280929190818152602001828054600181600116156101000203166002900480156116425780601f1061161757610100808354040283529160200191611642565b820191906000526020600020905b81548152906001019060200180831161162557829003601f168201915b505050505090806005018054600181600116156101000203166002900480601f0160208091040260200160405190810160405280929190818152602001828054600181600116156101000203166002900480156116e05780601f106116b5576101008083540402835291602001916116e0565b820191906000526020600020905b8154815290600101906020018083116116c357829003601f168201915b5050505050908060060160009054906101000a900460ff16908060060160019054906101000a900460ff16908060060160029054906101000a900460ff16905089565b606080606080606080606060056000016005600101600560020160056003016005600401600580016005600601868054600181600116156101000203166002900480601f0160208091040260200160405190810160405280929190818152602001828054600181600116156101000203166002900480156117e55780601f106117ba576101008083540402835291602001916117e5565b820191906000526020600020905b8154815290600101906020018083116117c857829003601f168201915b50505050509650858054600181600116156101000203166002900480601f0160208091040260200160405190810160405280929190818152602001828054600181600116156101000203166002900480156118815780601f1061185657610100808354040283529160200191611881565b820191906000526020600020905b81548152906001019060200180831161186457829003601f168201915b50505050509550848054600181600116156101000203166002900480601f01602080910402602001604051908101604052809291908181526020018280546001816001161561010002031660029004801561191d5780601f106118f25761010080835404028352916020019161191d565b820191906000526020600020905b81548152906001019060200180831161190057829003601f168201915b50505050509450838054600181600116156101000203166002900480601f0160208091040260200160405190810160405280929190818152602001828054600181600116156101000203166002900480156119b95780601f1061198e576101008083540402835291602001916119b9565b820191906000526020600020905b81548152906001019060200180831161199c57829003601f168201915b50505050509350828054600181600116156101000203166002900480601f016020809104026020016040519081016040528092919081815260200182805460018160011615610100020316600290048015611a555780601f10611a2a57610100808354040283529160200191611a55565b820191906000526020600020905b815481529060010190602001808311611a3857829003601f168201915b50505050509250818054600181600116156101000203166002900480601f016020809104026020016040519081016040528092919081815260200182805460018160011615610100020316600290048015611af15780601f10611ac657610100808354040283529160200191611af1565b820191906000526020600020905b815481529060010190602001808311611ad457829003601f168201915b50505050509150808054600181600116156101000203166002900480601f016020809104026020016040519081016040528092919081815260200182805460018160011615610100020316600290048015611b8d5780601f10611b6257610100808354040283529160200191611b8d565b820191906000526020600020905b815481529060010190602001808311611b7057829003601f168201915b50505050509050965096509650965096509650965090919293949596565b611bb361261f565b6040518060a001604052803373ffffffffffffffffffffffffffffffffffffffff16815260200184815260200183815260200160001515815260200160011515815250905080600f60003373ffffffffffffffffffffffffffffffffffffffff1673ffffffffffffffffffffffffffffffffffffffff16815260200190815260200160002060008201518160000160006101000a81548173ffffffffffffffffffffffffffffffffffffffff021916908373ffffffffffffffffffffffffffffffffffffffff1602179055506020820151816001019080519060200190611c9b929190612668565b506040820151816002019080519060200190611cb8929190612668565b5060608201518160030160006101000a81548160ff02191690831515021790555060808201518160030160016101000a81548160ff021916908315150217905550905050600e3390806001815401808255809150509060018203906000526020600020016000909192909190916101000a81548173ffffffffffffffffffffffffffffffffffffffff021916908373ffffffffffffffffffffffffffffffffffffffff160217905550506001600360008282540192505081905550505050565b6000809054906101000a900473ffffffffffffffffffffffffffffffffffffffff1673ffffffffffffffffffffffffffffffffffffffff163373ffffffffffffffffffffffffffffffffffffffff1614611dd157600080fd5b6040518060e001604052808881526020018781526020018681526020018581526020018481526020018381526020018281525060056000820151816000019080519060200190611e22929190612668565b506020820151816001019080519060200190611e3f929190612668565b506040820151816002019080519060200190611e5c929190612668565b506060820151816003019080519060200190611e79929190612668565b506080820151816004019080519060200190611e96929190612668565b5060a0820151816005019080519060200190611eb3929190612668565b5060c0820151816006019080519060200190611ed0929190612668565b509050506001600460006101000a81548160ff0219169083151502179055506000600460016101000a81548160ff02191690831515021790555050505050505050565b6000809054906101000a900473ffffffffffffffffffffffffffffffffffffffff1673ffffffffffffffffffffffffffffffffffffffff163373ffffffffffffffffffffffffffffffffffffffff1614611f6c57600080fd5b81600d60008373ffffffffffffffffffffffffffffffffffffffff1673ffffffffffffffffffffffffffffffffffffffff16815260200190815260200160002060060160006101000a81548160ff0219169083151502179055505050565b60008060009054906101000a900473ffffffffffffffffffffffffffffffffffffffff16905090565b611ffb6126e8565b6040518061012001604052803373ffffffffffffffffffffffffffffffffffffffff16815260200187815260200186815260200185815260200184815260200183815260200160001515815260200160001515815260200160011515815250905080600d60003373ffffffffffffffffffffffffffffffffffffffff1673ffffffffffffffffffffffffffffffffffffffff16815260200190815260200160002060008201518160000160006101000a81548173ffffffffffffffffffffffffffffffffffffffff021916908373ffffffffffffffffffffffffffffffffffffffff16021790555060208201518160010190805190602001906120ff929190612668565b50604082015181600201908051906020019061211c929190612668565b506060820151816003019080519060200190612139929190612668565b506080820151816004019080519060200190612156929190612668565b5060a0820151816005019080519060200190612173929190612668565b5060c08201518160060160006101000a81548160ff02191690831515021790555060e08201518160060160016101000a81548160ff0219169083151502179055506101008201518160060160026101000a81548160ff021916908315150217905550905050600c3390806001815401808255809150509060018203906000526020600020016000909192909190916101000a81548173ffffffffffffffffffffffffffffffffffffffff021916908373ffffffffffffffffffffffffffffffffffffffff160217905550506001600260008282540192505081905550505050505050565b600f6020528060005260406000206000915090508060000160009054906101000a900473ffffffffffffffffffffffffffffffffffffffff1690806001018054600181600116156101000203166002900480601f0160208091040260200160405190810160405280929190818152602001828054600181600116156101000203166002900480156123295780601f106122fe57610100808354040283529160200191612329565b820191906000526020600020905b81548152906001019060200180831161230c57829003601f168201915b505050505090806002018054600181600116156101000203166002900480601f0160208091040260200160405190810160405280929190818152602001828054600181600116156101000203166002900480156123c75780601f1061239c576101008083540402835291602001916123c7565b820191906000526020600020905b8154815290600101906020018083116123aa57829003601f168201915b5050505050908060030160009054906101000a900460ff16908060030160019054906101000a900460ff16905085565b600e818154811061240457fe5b906000526020600020016000915054906101000a900473ffffffffffffffffffffffffffffffffffffffff1681565b6000600460019054906101000a900460ff16905090565b6000600254905090565b6000600354905090565b6000600460009054906101000a900460ff16905090565b600c818154811061248257fe5b906000526020600020016000915054906101000a900473ffffffffffffffffffffffffffffffffffffffff1681565b81600d60008373ffffffffffffffffffffffffffffffffffffffff1673ffffffffffffffffffffffffffffffffffffffff16815260200190815260200160002060060160016101000a81548160ff02191690831515021790555081600f60008373ffffffffffffffffffffffffffffffffffffffff1673ffffffffffffffffffffffffffffffffffffffff16815260200190815260200160002060030160006101000a81548160ff0219169083151502179055505050565b6000809054906101000a900473ffffffffffffffffffffffffffffffffffffffff1681565b6000809054906101000a900473ffffffffffffffffffffffffffffffffffffffff1673ffffffffffffffffffffffffffffffffffffffff163373ffffffffffffffffffffffffffffffffffffffff16146125e757600080fd5b6001600460016101000a81548160ff0219169083151502179055506000600460006101000a81548160ff021916908315150217905550565b6040518060a00160405280600073ffffffffffffffffffffffffffffffffffffffff16815260200160608152602001606081526020016000151581526020016000151581525090565b828054600181600116156101000203166002900490600052602060002090601f016020900481019282601f106126a957805160ff19168380011785556126d7565b828001600101855582156126d7579182015b828111156126d65782518255916020019190600101906126bb565b5b5090506126e49190612750565b5090565b604051806101200160405280600073ffffffffffffffffffffffffffffffffffffffff16815260200160608152602001606081526020016060815260200160608152602001606081526020016000151581526020016000151581526020016000151581525090565b61277291905b8082111561276e576000816000905550600101612756565b5090565b9056fea265627a7a72315820c7a421e6d0ffd1d5daba38e1f9bcbf11f1c716f663319ae271665eed64bd982b64736f6c63430005100032",
  "source": "// SPDX-License-Identifier: MIT\npragma solidity >=0.4.21 <0.9.0;\n\ncontract Auction {\n    address public admin;\n    uint256 candidateCount;\n    uint256 bidderCount;\n    uint256 biddingCount;\n    bool start;\n    bool end;\n\n    constructor() public {\n        // Initilizing default values\n        admin = msg.sender;\n        candidateCount = 0;\n        bidderCount = 0;\n        biddingCount = 0;\n        start = false;\n        end = false;\n    }\n\n    function getAdmin() public view returns (address) {\n        // Returns account address used to deploy contract (i.e. admin)\n        return admin;\n    }\n\n    modifier onlyAdmin() {\n        // Modifier for only admin access\n        require(msg.sender == admin);\n        _;\n    }\n\n    // Modeling a Auction Details\n    struct AuctionDetails {\n        string adminName;\n        string adminEmail;\n        string adminTitle;\n        string auctionTitle;\n        string organizationTitle;\n        string auctionDetail;\n        string middlePrice;\n    }\n    AuctionDetails auctionDetails;\n\n    function setAuctionDetails(\n        string memory _adminName,\n        string memory _adminEmail,\n        string memory _adminTitle,\n        string memory _auctionTitle,\n        string memory _organizationTitle,\n        string memory _auctionDetail,\n        string memory _middlePrice\n    )\n        public\n        // Only admin can add\n        onlyAdmin\n    {\n        auctionDetails = AuctionDetails(\n            _adminName,\n            _adminEmail,\n            _adminTitle,\n            _auctionTitle,\n            _organizationTitle,\n            _auctionDetail,\n            _middlePrice\n        );\n        start = true;\n        end = false;\n    }\n\n    // Get Auctions details\n    function getAuctionDetails()\n        public\n        view\n        returns (\n            string memory adminName,\n            string memory adminEmail,\n            string memory adminTitle,\n            string memory auctionTitle,\n            string memory organizationTitle,\n            string memory auctionDetail,\n            string memory middlePrice\n        )\n    {\n        return (\n            auctionDetails.adminName,\n            auctionDetails.adminEmail,\n            auctionDetails.adminTitle,\n            auctionDetails.auctionTitle,\n            auctionDetails.organizationTitle,\n            auctionDetails.auctionDetail,\n            auctionDetails.middlePrice\n        );\n    }\n\n    // Get bidders count\n    function getTotalBidder() public view returns (uint256) {\n        // Returns total number of bidders\n        return bidderCount;\n    }\n\n    // Verify bidder\n    function verifyBidder(\n        bool _verifedStatus,\n        address bidderAddress\n    )\n        public\n        // Only admin can verify\n        onlyAdmin\n    {\n        bidderDetails[bidderAddress].isVerified = _verifedStatus;\n    }\n\n    // Modeling a bidder\n    struct Bidder {\n        address bidderAddress;\n        string companyName;\n        string taxNumber;\n        string companyAddress;\n        string name;\n        string phone;\n        bool isVerified;\n        bool hasBided;\n        bool isRegistered;\n    }\n    address[] public bidders; // Array of address to store address of bidders\n    mapping(address => Bidder) public bidderDetails;\n\n    // Request to be added as bidder\n    function registerAsBidder(\n        string memory _companyName,\n        string memory _taxNumber,\n        string memory _companyAddress,\n        string memory _name,\n        string memory _phone\n    ) public {\n        Bidder memory newBidder = Bidder({\n            bidderAddress: msg.sender,\n            companyName: _companyName,\n            taxNumber: _taxNumber,\n            companyAddress: _companyAddress,\n            name: _name,\n            phone: _phone,\n            hasBided: false,\n            isVerified: false,\n            isRegistered: true\n        });\n        bidderDetails[msg.sender] = newBidder;\n        bidders.push(msg.sender);\n        bidderCount += 1;\n    }\n\n    // End auction\n    function endAuction() public onlyAdmin {\n        end = true;\n        start = false;\n    }\n\n    // Get auction start and end values\n    function getStart() public view returns (bool) {\n        return start;\n    }\n\n    function getEnd() public view returns (bool) {\n        return end;\n    }\n\n    // Get biddings count\n    function getTotalBidding() public view returns (uint256) {\n        // Returns total number of biddings\n        return biddingCount;\n    }\n\n    // Modeling a bidding\n    struct Bidding {\n        address bidAddress;\n        string bidDetail;\n        string bidPrice;\n        bool hasBided;\n        bool isBided;\n    }\n    address[] public biddings; // Array of address to store address of biddings\n    mapping(address => Bidding) public biddingDetails;\n\n    // Request to be added as bidding\n    function fillBidding(\n        string memory _bidDetail,\n        string memory _bidPrice\n    ) public {\n        Bidding memory newBidding = Bidding({\n            bidAddress: msg.sender,\n            bidDetail: _bidDetail,\n            bidPrice: _bidPrice,\n            hasBided: false,\n            isBided: true\n        });\n        biddingDetails[msg.sender] = newBidding;\n        biddings.push(msg.sender);\n        biddingCount += 1;\n    }\n\n    // Verify bidder\n    function verifyBidding(bool _bidedStatus, address bidAddress) public {\n        bidderDetails[bidAddress].hasBided = _bidedStatus;\n        biddingDetails[bidAddress].hasBided = _bidedStatus;\n    }\n}\n",
  "sourcePath": "D:\\react\\dBidding\\contracts\\Auction.sol",
  "compiler": {
    "name": "solc",
    "version": "0.5.16+commit.9c3226ce.Emscripten.clang"
  },
  "schemaVersion": "3.4.14",
  "updatedAt": "2023-06-28T13:50:35.954Z",
  "networkType": "ethereum",
  "devdoc": {
    "methods": {}
  },
  "userdoc": {
    "methods": {}
  }
}